:100000000C942A000C94C0100C94FA100C94341127
:100010000C9447000C9447000C9447000C94470044
:100020000C9447000C94AF090C94640D0C94FB0CD9
:100030000C9447000C94F9070C9447000C9447006B
:100040000C9491150C9447000C9447000C944700B5
:100050000C94470011241FBECFE5D8E0DEBFCDBF12
:1000600013E0A0E6B0E0EEEFFAE602C005900D92D4
:10007000AC37B107D9F714E0ACE7B3E001C01D928B
:10008000AB3DB107E1F70E94A3310C947D350C9490
:100090000000EF92FF920F931F937B018C0120E0F1
:1000A00030E040E05FE40E94F50388238CF0C80153
:1000B000B70120E030E040E05FE40E94C1010E940F
:1000C00055049B01AC01205030404040504806C0D0
:1000D000C801B7010E9455049B01AC01B901CA01D6
:1000E0001F910F91FF90EF900895A0E0B0E0EBE733
:1000F000F0E00C944332DC012B01FA019C91923028
:1001000008F439C1EB018881823008F433C194309E
:1001100069F4843009F02FC111969C91119789815F
:10012000981709F428C1A7E2B2E025C1843009F488
:1001300021C18230A9F4923009F01DC19A01AD01AC
:1001400088E0EA010990AE01E90109929E0181501F
:10015000C1F7E201898111969C918923818308C1AD
:10016000923009F407C112962D903C901397EB0141
:100170008A819B811496AD90BD90CD90DC901797AD
:10018000EC80FD800E811F819101281B390BB90184
:1001900037FF04C066277727621B730B6032710537
:1001A0000CF061C0121613066CF537014801062EDB
:1001B00004C096948794779467940A94D2F721E0C8
:1001C00030E040E050E004C0220F331F441F551FB1
:1001D0006A95D2F721503040404050402E213F21B7
:1001E00040235123211531054105510521F021E01E
:1001F00030E040E050E079018A01E628F72808293C
:1002000019293CC0232BD1F1260E371E350146019A
:10021000062E04C096948794779467940A94D2F734
:1002200021E030E040E050E004C0220F331F441FC3
:10023000551F6A95D2F721503040404050402A2146
:100240003B214C215D21211531054105510521F04E
:1002500021E030E040E050E059016A01A628B728CB
:10026000C828D9280BC0821593052CF01C01AA249C
:10027000BB24650103C0EE24FF24870111969C91E5
:10028000D20111968C91981709F445C0992339F041
:10029000A80197012A193B094C095D0906C0A6016E
:1002A00095012E193F09400B510B57FD08C01182D3
:1002B0003382228224833583468357831DC081E0A5
:1002C00081833382228288279927DC01821B930B4A
:1002D000A40BB50B84839583A683B7830DC0220F2F
:1002E000331F441F551F24833583468357838281E0
:1002F000938101979383828324813581468157813D
:10030000DA01C9010197A109B1098F5F9F4FAF4F72
:10031000BF4328F30BC0918333822282EA0CFB1C7B
:100320000C1D1D1DE482F5820683178383E0808304
:10033000248135814681578157FF1AC0C901AA27F8
:1003400097FDA095BA2F81709070A070B0705695EF
:10035000479537952795822B932BA42BB52B848318
:100360009583A683B7838281938101969383828349
:10037000DF0101C0D201CD01CDB7DEB7E2E10C94BF
:100380005F32A0E2B0E0E7ECF1E00C944F32698319
:100390007A838B839C832D833E834F835887E9E048
:1003A000EE2EF12CEC0EFD1ECE010196B7010E943F
:1003B00046068E010F5E1F4FCE010596B8010E94C2
:1003C00046068A8991E089278A8BC701B801AE0168
:1003D000475E5F4F0E9475000E947105A096E6E09F
:1003E0000C946B32A0E2B0E0E8EFF1E00C944F32F5
:1003F00069837A838B839C832D833E834F835887C5
:10040000F9E0EF2EF12CEC0EFD1ECE010196B701A6
:100410000E9446068E010F5E1F4FCE010596B80161
:100420000E944606C701B801AE01475E5F4F0E94B9
:1004300075000E947105A096E6E00C946B32A0E274
:10044000B0E0E5E2F2E00C94433269837A838B8377
:100450009C832D833E834F835887CE010196BE0136
:10046000675F7F4F0E944606CE010596BE016F5E14
:100470007F4F0E9446069985923088F089898230A4
:10048000C8F0943019F4823051F404C0843029F457
:10049000923081F487E292E0C6C0923049F420E0C5
:1004A0009A858A89981321E02A87CE010996BBC0D4
:1004B000823049F420E09A858A89981321E02A8BBA
:1004C000CE014196B0C02D843E844F8458886D88FB
:1004D0007E888F88988CEE24FF248701AA24BB2471
:1004E000650140E050E060E070E0E0E0F0E0C10174
:1004F00081709070892BE9F0E60CF71C081D191D1E
:100500009A01AB012A0D3B1D4C1D5D1D80E090E062
:10051000A0E0B0E0E614F7040805190520F481E036
:1005200090E0A0E0B0E0BA01A901480F591F6A1F8E
:100530007B1FAA0CBB1CCC1CDD1C97FE08C081E0F5
:1005400090E0A0E0B0E0A82AB92ACA2ADB2A3196B6
:10055000E032F10549F0660C771C881C991C569412
:10056000479437942794C3CFFA85EA892B893C892D
:100570008B859C85280F391F2E5F3F4F17C0CA01FE
:1005800081709070892B61F016950795F794E79428
:1005900080E090E0A0E0B0E8E82AF92A0A2B1B2BC3
:1005A00076956795579547952F5F3F4F77FDE7CF36
:1005B0000CC0440F551F661F771F17FD4160EE0CDE
:1005C000FF1C001F111F21503040403090E05907A0
:1005D00090E0690790E4790760F32B8F3C8FDB0193
:1005E000CA018F779070A070B07080349105A1051A
:1005F000B10561F447FD0AC0E114F10401051105DC
:1006000029F0405C5F4F6F4F7F4F40781A8EFE1786
:1006100011F081E08A8F4D8F5E8F6F8F78A383E01A
:10062000898FCE0149960E947105A096E2E10C9453
:100630005F32A8E1B0E0EFE1F3E00C944B32698364
:100640007A838B839C832D833E834F835887B9E0C5
:10065000EB2EF12CEC0EFD1ECE010196B7010E948F
:1006600046068E010F5E1F4FCE010596B8010E940F
:1006700046062985223008F47EC03989323010F4CC
:10068000B8017CC08A859A8989278A87243011F02D
:10069000223031F4231709F06EC067E272E06EC0B9
:1006A000343039F41D861E861F86188A1C861B86E8
:1006B00004C0323021F484E08987B7015FC02B8504
:1006C0003C858B899C89281B390B3C872B87ED84C3
:1006D000FE840F851889AD88BE88CF88D88CEA142F
:1006E000FB040C051D0540F4EE0CFF1C001F111F40
:1006F000215030403C872B8720E030E040E050E044
:1007000080E090E0A0E0B0E460E070E0EA14FB0478
:100710000C051D0540F0282B392B4A2B5B2BEA18C2
:10072000FB080C091D09B695A79597958795EE0CC2
:10073000FF1C001F111F6F5F7F4F6F31710531F775
:10074000DA01C9018F779070A070B0708034910584
:10075000A105B10561F427FD0AC0E114F10401050A
:10076000110529F0205C3F4F4F4F5F4F20782D87B8
:100770003E874F87588BBE01675F7F4FCB010E943A
:1007800071056896EAE00C946732A8E1B0E0EBEC02
:10079000F3E00C944F3269837A838B839C832D839F
:1007A0003E834F83588789E0E82EF12CEC0EFD1E26
:1007B000CE010196B7010E9446068E010F5E1F4FC3
:1007C000CE010596B8010E9446068985823040F028
:1007D0008989823028F0C701B8010E94BE0601C095
:1007E0008FEF6896E6E00C946B32A8E1B0E0EBEF97
:1007F000F3E00C944F3269837A838B839C832D833F
:100800003E834F83588789E0E82EF12CEC0EFD1EC5
:10081000CE010196B7010E9446068E010F5E1F4F62
:10082000CE010596B8010E9446068985823040F0C7
:100830008989823028F0C701B8010E94BE0601C034
:100840008FEF6896E6E00C946B32A8E1B0E0EBE243
:10085000F4E00C944F3269837A838B839C832D83DD
:100860003E834F83588789E0E82EF12CEC0EFD1E65
:10087000CE010196B7010E9446068E010F5E1F4F02
:10088000CE010596B8010E9446068985823040F067
:100890008989823028F0C701B8010E94BE0601C0D4
:1008A00081E06896E6E00C946B32ACE0B0E0EBE5FA
:1008B000F4E00C94533269837A838B839C83CE015A
:1008C0000196BE016B5F7F4F0E9446068D8182308C
:1008D00061F1823050F1843021F48E81882351F10E
:1008E0002EC02F81388537FD20C06E812F31310514
:1008F0001CF06623F9F023C08EE190E0821B930B7D
:1009000029853A854B855C8504C056954795379572
:1009100027958A95D2F76623B1F05095409530958A
:1009200021953F4F4F4F5F4F0EC020E030E040E039
:1009300050E009C02FEF3FEF4FEF5FE704C020E02A
:1009400030E040E050E8B901CA012C96E2E00C9496
:100950006F32A8E0B0E0EFEAF4E00C944B327B0198
:100960008C01611571058105910519F482E0898377
:1009700060C083E089838EE1C82ED12CDC82CB82DB
:10098000ED82FE820F831887C801B7010E942205FD
:10099000FC013197F7FF3BC0222733272E1B3F0B6B
:1009A00057016801022E04C0D694C794B794A79447
:1009B0000A94D2F740E050E060E070E081E090E01F
:1009C000A0E0B0E004C0880F991FAA1FBB1F2A95A2
:1009D000D2F70197A109B1098E219F21A023B1234C
:1009E0000097A105B10521F041E050E060E070E022
:1009F0004A295B296C297D294D835E836F83788723
:100A00008EE190E08E1B9F0B9C838B8312C03097EE
:100A100081F00E2E04C0EE0CFF1C001F111F0A9463
:100A2000D2F7ED82FE820F831887CE1ADF0ADC82AE
:100A3000CB821A82CE0101960E9471052896EAE0C7
:100A40000C946732EF92FF920F931F937B018C01FE
:100A500080E0E81680E0F80681E0080780E01807EB
:100A600088F48FEFE816F1040105110531F028F044
:100A700088E090E0A0E0B0E017C080E090E0A0E067
:100A8000B0E012C080E0E81680E0F80680E00807D9
:100A900081E0180728F088E190E0A0E0B0E004C011
:100AA00080E190E0A0E0B0E020E230E040E050E003
:100AB000281B390B4A0B5B0B04C016950795F7945E
:100AC000E7948A95D2F7F701E15DFD4F8081281BFD
:100AD000310941095109C9011F910F91FF90EF9010
:100AE0000895DF92EF92FF920F931F93FC01E48031
:100AF000F58006811781D1808081823048F480E0C2
:100B000090E0A0E1B0E0E82AF92A0A2B1B2BA5C04F
:100B1000843009F49FC0823021F4EE24FF24870141
:100B200005C0E114F1040105110519F4E0E0F0E05D
:100B300096C0628173819FEF623879070CF05BC0C9
:100B400022E83FEF261B370B2A3131052CF020E03D
:100B500030E040E050E02AC0B801A701022E04C0F6
:100B600076956795579547950A94D2F781E090E07E
:100B7000A0E0B0E004C0880F991FAA1FBB1F2A95F0
:100B8000D2F70197A109B1098E219F21A023B1239A
:100B90000097A105B10521F081E090E0A0E0B0E070
:100BA0009A01AB01282B392B4A2B5B2BDA01C901A7
:100BB0008F779070A070B07080349105A105B10559
:100BC00039F427FF09C0205C3F4F4F4F5F4F04C0EF
:100BD000215C3F4F4F4F5F4FE0E0F0E02030A0E05E
:100BE0003A07A0E04A07A0E45A0710F0E1E0F0E07D
:100BF00079018A0127C06038710564F5FB01E1586D
:100C0000FF4FD801C7018F779070A070B07080340B
:100C10009105A105B10539F4E7FE0DC080E490E02F
:100C2000A0E0B0E004C08FE390E0A0E0B0E0E80E08
:100C3000F91E0A1F1B1F17FF05C016950795F7948D
:100C4000E794319687E016950795F794E7948A958F
:100C5000D1F705C0EE24FF248701EFEFF0E06E2FFF
:100C6000679566276795902F9F77D794DD24D79453
:100C70008E2F8695492F462B582F5D29B701CA0123
:100C80001F910F91FF90EF90DF900895FC01DB0121
:100C9000408151812281622F6F7770E0221F2227CD
:100CA000221F9381892F880F822B282F30E0991FD4
:100CB0009927991F11969C93119721153105A9F534
:100CC000411551056105710511F482E037C082E8D4
:100CD0009FEF13969C938E9312979A01AB0167E056
:100CE000220F331F441F551F6A95D1F783E08C9361
:100CF0000DC0220F331F441F551F12968D919C91DA
:100D00001397019713969C938E931297203080E04F
:100D1000380780E0480780E4580758F314962D936D
:100D20003D934D935C93179708952F3F310579F4C8
:100D3000411551056105710519F484E08C930895FE
:100D400064FF03C081E08C9312C01C9210C02F5727
:100D5000304013963C932E93129783E08C9387E058
:100D6000440F551F661F771F8A95D1F7706414963C
:100D70004D935D936D937C93179708951F93DC01BA
:100D8000FB019C91923008F447C08081823008F4C6
:100D900043C0943051F411961C91843099F58181AF
:100DA000682F70E0611B71093FC0843021F09230E0
:100DB00031F48230B9F18181882389F12DC01196F7
:100DC0001C9111978230F1F081811817D9F4129695
:100DD0002D913C911397828193818217930794F010
:100DE00028173907BCF014968D919D910D90BC91F8
:100DF000A02D2481358146815781281739074A075C
:100E00005B0718F4112341F00AC082179307A40767
:100E1000B50740F4112319F061E070E005C06FEFF1
:100E20007FEF02C060E070E0CB011F910895DF9377
:100E3000CF9300D00F92CDB7DEB79B838A83198200
:100E40008981806889838981877F8983EA81FB81A1
:100E500093818981892B8983EA81FB8180818E300E
:100E600059F4898186608983AAE2B0E0EAE2F0E081
:100E7000808184608C9306C0EA81FB8190818981A6
:100E8000892B8983AAE2B0E0EAE2F0E08081806801
:100E90008C93EA81FB8192818981892B8983E0E4AB
:100EA000F0E089818083E9E2F0E088E08083AAE2D3
:100EB000B0E0EAE2F0E0808188608C93AAE2B0E0E2
:100EC000EAE2F0E0808180618C930F900F900F90A8
:100ED000CF91DF910895DF93CF930F92CDB7DEB717
:100EE0008983EBE2F0E08081829586958770882F78
:100EF00090E0817090700097A1F3ECE2F0E08981BE
:100F00008083EBE2F0E08081829586958695837000
:100F1000882F90E081709070009799F3ABE2B0E079
:100F2000EBE2F0E0808180648C930F90CF91DF91B1
:100F30000895DF93CF9300D00F92CDB7DEB79B8398
:100F40008A8319820EC08981282F30E08A819B8193
:100F5000FC01E20FF31F80810E946B0789818F5F84
:100F600089838981282F30E08A819B81FC01E20FEF
:100F7000F31F8081882339F70F900F900F90CF9146
:100F8000DF910895DF93CF93CDB7DEB7EBE2F0E0CA
:100F900080818823DCF7ECE2F0E08081CF91DF9163
:100FA0000895DF93CF9300D0CDB7DEB79A838983BE
:100FB00089819A81009731F089819A8190937D038C
:100FC00080937C030F900F90CF91DF910895DF9372
:100FD000CF9300D0CDB7DEB79A838983ECE2F0E0FF
:100FE0008081E981FA8180830F900F90CF91DF910A
:100FF00008951F920F920FB60F9211242F933F93D3
:101000004F935F936F937F938F939F93AF93BF9310
:10101000EF93FF93DF93CF93CDB7DEB7E0917C03DF
:10102000F0917D030995CF91DF91FF91EF91BF91F1
:10103000AF919F918F917F916F915F914F913F9170
:101040002F910F900FBE0F901F901895DF93CF93A5
:1010500000D0CDB7DEB79A838983AFE4B0E0EFE488
:10106000F0E080818C7F8C93AEE4B0E0EEE4F0E0C1
:101070008081877E8C93E981FA8181818430A0F020
:10108000AFE4B0E0EFE4F0E08081982FE981FA81ED
:1010900081818370892B8C93AEE4B0E0EEE4F0E0C4
:1010A000808188608C930AC0AFE4B0E0EFE4F0E0A8
:1010B0009081E981FA818181892B8C93AFE4B0E042
:1010C000EFE4F0E080818F738C93AFE4B0E0EFE465
:1010D000F0E09081E981FA818281892B8C93AFE4E1
:1010E000B0E0EFE4F0E080818F7C8C93AFE4B0E07F
:1010F000EFE4F0E09081E981FA818381892B8C9380
:10110000AEE4B0E0EEE4F0E08081887F8C93AEE462
:10111000B0E0EEE4F0E09081E981FA818081892BF2
:101120008C930F900F90CF91DF910895DF93CF9321
:10113000CDB7DEB7ECE4F0E08091890390918A03AB
:10114000A0918B03B0918C0391838083EEE4F0E057
:1011500084E08083CF91DF910895DF93CF93CDB763
:10116000DEB7EEE4F0E01082CF91DF910895EF92C8
:10117000FF920F931F93DF93CF93CDB7DEB72A97DC
:101180000FB6F894DEBF0FBECDBF9A8789878DEB6F
:1011900097E3A6E8B7E38D839E83AF83B8878985FD
:1011A0009A8528EE33E0B9010E94DF31CB01CC01F2
:1011B000A0E0B0E0BC01CD010E94A904DC01CB019C
:1011C000BC01CD012D813E814F8158850E941903BC
:1011D000DC01CB01BC01CD010E944900DC01CB0147
:1011E00089839A83AB83BC8320E030E041E050E008
:1011F00089819A81AB81BC8179018A01E81AF90A57
:101200000A0B1B0BD801C7018093890390938A03B3
:10121000A0938B03B0938C032A960FB6F894DEBF8D
:101220000FBECDBFCF91DF911F910F91FF90EF9037
:101230000895DF93CF93CDB7DEB7A9E5B0E0E9E538
:10124000F0E0808184608C93CF91DF910895DF93EB
:10125000CF93CDB7DEB7A9E5B0E0E9E5F0E0808156
:101260008F7D8C93A9E5B0E0E9E5F0E080818F7E89
:101270008C93A9E5B0E0E9E5F0E08081877F8C936D
:10128000A9E5B0E0E9E5F0E080818B7F8C93CF9118
:10129000DF910895DF93CF9300D000D000D0CDB779
:1012A000DEB79A8389837C836B835E834D838981D8
:1012B0009A81009731F089819A8190937F0380937E
:1012C0007E038B819C81009731F08B819C81909370
:1012D0008103809380038D819E81009731F08D8101
:1012E0009E81909383038093820326960FB6F89491
:1012F000DEBF0FBECDBFCF91DF910895DF93CF93B7
:1013000000D000D00F92CDB7DEB769837A838B838C
:101310009C834D838D81882321F4E8E4F0E01082E2
:1013200016C0E8E4F0E08D81882F90E0982F8827A0
:1013300024E630E0B9010E94F331CB018150808373
:10134000AEE4B0E0EEE4F0E0808182608C930F9038
:101350000F900F900F900F90CF91DF9108951F92F3
:101360000F920FB60F9211242F933F934F935F93D9
:101370006F937F938F939F93AF93BF93EF93FF935D
:10138000DF93CF93CDB7DEB7ECE4F0E08091890333
:1013900090918A03A0918B03B0918C0391838083F9
:1013A0008091840390918503A0918603B091870377
:1013B0000196A11DB11D8093840390938503A09392
:1013C0008603B09387038091840390918503A09155
:1013D0008603B091870381709070A070B070009701
:1013E000A105B10529F4E0917E03F0917F030995F1
:1013F0008091840390918503A0918603B091870327
:1014000026E030E040E050E0BC01CD010E94063211
:10141000DC01CB010097A105B10529F4E09182031D
:10142000F0918303099580918803813039F4E0912C
:101430008003F0918103099510928803CF91DF9189
:10144000FF91EF91BF91AF919F918F917F916F919C
:101450005F914F913F912F910F900FBE0F901F9072
:101460001895DF93CF9300D000D0CDB7DEB79B8324
:101470008A8320913703309138038A819B81281712
:10148000390718F464E06C8345C019823DC0898136
:10149000882F90E0880F991FFC01E15DFC4F2081AF
:1014A00031818A819B818217930758F58981882F22
:1014B00090E00197880F991FFC01E15DFC4F2081AE
:1014C00031818A819B81AC01421B530B8981882F1A
:1014D00090E0880F991FFC01E15DFC4F2081318174
:1014E0008A819B81B901681B790BCB014817590789
:1014F00028F48981782F71507C830CC089818C837A
:1015000009C089818F5F89838981853008F4BFCFC5
:1015100095E09C838C810F900F900F900F90CF914E
:10152000DF910895DF93CF9300D0CDB7DEB79A83D4
:101530008983E981FA8180819181A281B38180933D
:10154000950390939603A0939703B0939803A3E514
:10155000B0E0E3E5F0E0808187788C93A3E5B0E02C
:10156000E3E5F0E0208180919603982F9295907F9B
:1015700080919503880F880F880F890F820F8C93B5
:10158000ECE5F0E08091980380830F900F90CF916D
:10159000DF910895DF93CF93CDB7DEB7A3E5B0E039
:1015A000E3E5F0E08081887F8C93A3E5B0E0E3E59C
:1015B000F0E0908180919703890F8C93CF91DF9118
:1015C0000895DF93CF93CDB7DEB7A3E5B0E0E3E5B1
:1015D000F0E08081887F8C93CF91DF910895DF9335
:1015E000CF93CDB7DEB7E2E5F0E08081CF91DF9118
:1015F0000895DF93CF93CDB7DEB7A9E5B0E0E9E575
:10160000F0E0808181608C93CF91DF910895DF932A
:10161000CF93CDB7DEB7A9E5B0E0E9E5F0E0808192
:101620008E7F8C93CF91DF910895DF93CF93CDB7C9
:10163000DEB7A9E5B0E0E9E5F0E0808182608C9357
:10164000CF91DF910895DF93CF93CDB7DEB7A9E5B2
:10165000B0E0E9E5F0E080818D7F8C93CF91DF9160
:101660000895EF92FF920F931F93DF93CF93CDB71F
:10167000DEB72A970FB6F894DEBF0FBECDBF6D83DD
:101680007E838F8398878D819E81AF81B88520E886
:101690003EE340E050E0BC01CD010E94B4317B014B
:1016A0008C0180919703882F90E00197880F991FF4
:1016B000FC01E15DFC4F808191819C0140E050E0A4
:1016C000C801B7010E940632DA01C90189839A83F1
:1016D000AB83BC8380919503282F30E03A8729871C
:1016E00089859A85009731F029853A852130310521
:1016F00099F179C089819A81AB81BC81892F9A2F18
:10170000AB2FBB2780938D0390938E03A0938F0301
:10171000B0939003898180939903809199038823E2
:1017200009F461C080918D0390918E03A0918F0385
:10173000B09190030196A11DB11D80938D039093EC
:101740008E03A0938F03B0939003E2E5F0E08091C5
:1017500099038195808347C080919803282F30E0BA
:1017600040E050E089819A81AB81BC81BC01CD0110
:101770000E940632DA01C90180938D0390938E0393
:10178000A0938F03B093900380919803282F30E0AB
:1017900040E050E089819A81AB81BC81BC01CD01E0
:1017A0000E940632DC01CB0180939903809199035A
:1017B0008823C9F080918D0390918E03A0918F03AF
:1017C000B09190030196A11DB11D80938D0390935C
:1017D0008E03A0938F03B0939003E2E5F0E0809135
:1017E0009903819580832A960FB6F894DEBF0FBEC9
:1017F000CDBFCF91DF911F910F91FF90EF90089592
:10180000DF93CF9300D0CDB7DEB79A8389838981E8
:101810009A8190939D0380939C030F900F90CF919A
:10182000DF910895DF93CF9300D0CDB7DEB79A83D1
:10183000898389819A8190939B0380939A030F9067
:101840000F90CF91DF910895DF93CF9300D000D018
:101850000F92CDB7DEB78A836B838A81882F90E0A1
:10186000982F88279C01442737FD4095542F80E00E
:1018700094E2A4EFB0E0BC01CD010E942832DA016D
:10188000C9010E94310A898389818F5F8093970300
:1018900080919603282F30E03D832C838C819D819D
:1018A0008230910531F02C813D812330310589F062
:1018B0001FC0ECE5F0E08B81882F90E0982F8827FF
:1018C00024E630E0B9010E94F331CB0181508083DE
:1018D0000FC0ECE5F0E08B81882F90E0982F8827EF
:1018E00024E630E0B9010E94F331CB01809580837A
:1018F0000F900F900F900F900F90CF91DF91089560
:10190000DF93CF9300D000D00F92CDB7DEB78A839C
:101910006B838A81282F30E08EEF91E0AC01249F09
:10192000C001259F900D349F900D11249C014427E8
:1019300037FD4095542F80E094E2A4EFB0E0BC0165
:10194000CD010E942832DA01C9010E94310A89833F
:1019500089818F5F8093970380919603282F30E0D1
:101960003D832C834C815D814230510531F08C8167
:101970009D8183309105E1F036C0ECE5F0E08B818C
:10198000482F50E0CA019C01220F331FC9019695D0
:10199000982F882797958795821B930B840F951F07
:1019A00024E630E0B9010E94F331CB0180831BC0F3
:1019B000ECE5F0E08B81482F50E0CA019C01220F3A
:1019C000331FC9019695982F882797958795821B75
:1019D000930B840F951F24E630E0B9010E94F33188
:1019E000CB01809580830F900F900F900F900F90F8
:1019F000CF91DF9108951F920F920FB60F9211248D
:101A00002F933F934F935F936F937F938F939F9306
:101A1000AF93BF93EF93FF93DF93CF93CDB7DEB731
:101A20008091910390919203A0919303B0919403BC
:101A30000196A11DB11D8093910390939203A093F1
:101A40009303B093940320919103309192034091BA
:101A500093035091940380918D0390918E03A091F4
:101A60008F03B0919003281739074A075B07C9F421
:101A700080919A0390919B03009729F0E0919A033B
:101A8000F0919B030995109291031092920310928A
:101A9000930310929403E2E5F0E08091990381951D
:101AA0008083CF91DF91FF91EF91BF91AF919F9193
:101AB0008F917F916F915F914F913F912F910F90F7
:101AC0000FBE0F901F9018951F920F920FB60F9296
:101AD00011242F933F934F935F936F937F938F9333
:101AE0009F93AF93BF93EF93FF93DF93CF93CDB7C4
:101AF000DEB780919C0390919D03009729F0E091BF
:101B00009C03F0919D030995CF91DF91FF91EF9197
:101B1000BF91AF919F918F917F916F915F914F9105
:101B20003F912F910F900FBE0F901F901895DF934C
:101B3000CF93CDB7DEB72B970FB6F894DEBF0FBEAD
:101B4000CDBF9D838C838C819D81009709F440C219
:101B50001B823AC28B81882F90E09C01220F331F99
:101B6000220F331F8C819D81FC01E20FF31F8081C6
:101B70009AE0692F0E94D331892F8A838B81882F25
:101B800090E09C01220F331F220F331F8C819D8117
:101B9000FC01E20FF31F80819AE0692F0E94D3318C
:101BA00089838B81882F90E09C01220F331F220FA5
:101BB000331F8C819D81FC01E20FF31F82818823FA
:101BC00089F08B81882F90E09C01220F331F220F18
:101BD000331F8C819D81FC01E20FF31F82818130D4
:101BE00009F0EFC18981282F30E03B872A876A8579
:101BF0007B8562307105D1F18A859B8583309105A3
:101C000034F42A853B852130310571F094C06A8512
:101C10007B856330710509F44BC08A859B858430D0
:101C2000910509F467C087C0AAE3B0E0EAE3F0E0F9
:101C300040818B81882F90E09C01220F331F220F5F
:101C4000331F8C819D81FC01E20FF31F8281282FBD
:101C500030E08A81882F90E0B90102C0660F771FBB
:101C60008A95E2F7CB01842B8C9365C0A7E3B0E0A3
:101C7000E7E3F0E040818B81882F90E09C01220F08
:101C8000331F220F331F8C819D81FC01E20FF31F54
:101C90008281282F30E08A81882F90E0B90102C02C
:101CA000660F771F8A95E2F7CB01842B8C9343C094
:101CB000A4E3B0E0E4E3F0E040818B81882F90E082
:101CC0009C01220F331F220F331F8C819D81FC0149
:101CD000E20FF31F8281282F30E08A81882F90E065
:101CE000B90102C0660F771F8A95E2F7CB01842BFA
:101CF0008C9321C0A1E3B0E0E1E3F0E040818B816F
:101D0000882F90E09C01220F331F220F331F8C81FC
:101D10009D81FC01E20FF31F8281282F30E08A8130
:101D2000882F90E0B90102C0660F771F8A95E2F70D
:101D3000CB01842B8C938B81882F90E09C01220F08
:101D4000331F220F331F8C819D81FC01E20FF31F93
:101D50008181882389F08B81882F90E09C01220F5C
:101D6000331F220F331F8C819D81FC01E20FF31F73
:101D70008181813009F025C18981282F30E03987A0
:101D800028876885798562307105D1F188859985C4
:101D90008330910534F4288539852130310571F07F
:101DA00094C0688579856330710509F44BC08885D6
:101DB00099858430910509F467C087C0ABE3B0E032
:101DC000EBE3F0E040818B81882F90E09C01220FB3
:101DD000331F220F331F8C819D81FC01E20FF31F03
:101DE0008181282F30E08A81882F90E0B90102C0DC
:101DF000660F771F8A95E2F7CB01842B8C9365C021
:101E0000A8E3B0E0E8E3F0E040818B81882F90E028
:101E10009C01220F331F220F331F8C819D81FC01F7
:101E2000E20FF31F8181282F30E08A81882F90E014
:101E3000B90102C0660F771F8A95E2F7CB01842BA8
:101E40008C9343C0A5E3B0E0E5E3F0E040818B81F3
:101E5000882F90E09C01220F331F220F331F8C81AB
:101E60009D81FC01E20FF31F8181282F30E08A81E0
:101E7000882F90E0B90102C0660F771F8A95E2F7BC
:101E8000CB01842B8C9321C0A2E3B0E0E2E3F0E02D
:101E900040818B81882F90E09C01220F331F220FFD
:101EA000331F8C819D81FC01E20FF31F8181282F5C
:101EB00030E08A81882F90E0B90102C0660F771F59
:101EC0008A95E2F7CB01842B8C938B81882F90E04D
:101ED0009C01220F331F220F331F8C819D81FC0137
:101EE000E20FF31F8381882309F06BC08981282FBB
:101EF00030E03F832E836E817F816230710549F12E
:101F00008E819F818330910534F42E813F81213071
:101F1000310561F056C06E817F816330710561F1DA
:101F20008E819F8184309105D1F14BC0ABE3B0E04D
:101F3000EBE3F0E040818A81282F30E081E090E0FF
:101F4000022E02C0880F991F0A94E2F7842B8C930B
:101F500038C0A8E3B0E0E8E3F0E040818A81282FB0
:101F600030E081E090E0022E02C0880F991F0A94B1
:101F7000E2F7842B8C9325C0A5E3B0E0E5E3F0E025
:101F800040818A81282F30E081E090E0022E02C05B
:101F9000880F991F0A94E2F7842B8C9312C0A2E356
:101FA000B0E0E2E3F0E040818A81282F30E081E078
:101FB00090E0022E02C0880F991F0A94E2F7842B4A
:101FC0008C938B818F5F8B838B818B3008F4C2CD98
:101FD0002B960FB6F894DEBF0FBECDBFCF91DF9129
:101FE0000895DF93CF93CDB7DEB7AFE5B0E0EFE56F
:101FF000F0E0808180688C93CF91DF910895DF932A
:10200000CF93CDB7DEB7AFE5B0E0EFE5F0E080818C
:102010008F778C93CF91DF910895DF93CF9300D08A
:102020000F92CDB7DEB789838981282F30E03B83BB
:102030002A838A819B818130910501F12A813B812C
:102040002230310589F18A819B81009709F040C0D7
:10205000A5E5B0E0E5E5F0E080818C7F8C93A5E517
:10206000B0E0E5E5F0E080818D5F8C93ABE5B0E01A
:10207000EBE5F0E0808180648C932AC0A5E5B0E0B8
:10208000E5E5F0E08081837F8C93A5E5B0E0E5E5B0
:10209000F0E080818C5F8C93ABE5B0E0EBE5F0E0A5
:1020A000808180688C9314C0A4E5B0E0E4E5F0E0A2
:1020B00080818F7B8C93A4E5B0E0E4E5F0E0808143
:1020C0008C93ABE5B0E0EBE5F0E0808180628C932F
:1020D0000F900F900F90CF91DF910895DF93CF93E2
:1020E00000D00F92CDB7DEB789838981282F30E0E9
:1020F0003B832A838A819B818130910589F02A81E3
:102100003B8122303105A1F08A819B810097B9F48F
:10211000ABE5B0E0EBE5F0E080818F7B8C930FC006
:10212000ABE5B0E0EBE5F0E080818F778C9307C002
:10213000ABE5B0E0EBE5F0E080818F7D8C930F9014
:102140000F900F90CF91DF910895DF93CF9300D040
:102150000F92CDB7DEB79A8389836B838B81882FEB
:1021600090E0880F991FFC01E256FC4F89819A810B
:10217000918380830F900F900F90CF91DF910895FE
:102180001F920F920FB60F9211242F933F934F93EC
:102190005F936F937F938F939F93AF93BF93EF93CF
:1021A000FF93DF93CF93CDB7DEB7AAE5B0E0EAE5C2
:1021B000F0E0808180648C9380919E0390919F03D6
:1021C000009729F0E0919E03F0919F030995CF912C
:1021D000DF91FF91EF91BF91AF919F918F917F918F
:1021E0006F915F914F913F912F910F900FBE0F9084
:1021F0001F9018951F920F920FB60F9211242F93D4
:102200003F934F935F936F937F938F939F93AF937E
:10221000BF93EF93FF93DF93CF93CDB7DEB7AAE5DC
:10222000B0E0EAE5F0E0808180688C938091A003C3
:102230009091A103009729F0E091A003F091A103F0
:102240000995CF91DF91FF91EF91BF91AF919F9150
:102250008F917F916F915F914F913F912F910F904F
:102260000FBE0F901F9018951F920F920FB60F92EE
:1022700011242F933F934F935F936F937F938F938B
:102280009F93AF93BF93EF93FF93DF93CF93CDB71C
:10229000DEB7AAE5B0E0EAE5F0E0808180628C93E9
:1022A0008091A2039091A303009729F0E091A203EB
:1022B000F091A3030995CF91DF91FF91EF91BF9129
:1022C000AF919F918F917F916F915F914F913F91CE
:1022D0002F910F900FBE0F901F901895DF93CF9303
:1022E00000D000D000D0CDB7DEB78C838C819AE0CF
:1022F000692F0E94D331892F8B838C819AE0692FBB
:102300000E94D3318A838A81282F30E03E832D8337
:102310004D815E814230510541F18D819E81833036
:10232000910534F42D813E812130310561F052C098
:102330004D815E814330510551F18D819E81843004
:102340009105B9F147C0E9E3F0E08081282F30E042
:102350008B81882F90E0A90102C0559547958A95F9
:10236000E2F7CA018170898335C0E6E3F0E080813D
:10237000282F30E08B81882F90E0A90102C055956D
:1023800047958A95E2F7CA018170898323C0E3E308
:10239000F0E08081282F30E08B81882F90E0A90128
:1023A00002C0559547958A95E2F7CA0181708983E5
:1023B00011C0E0E3F0E08081282F30E08B81882F8E
:1023C00090E0A90102C0559547958A95E2F7CA01A8
:1023D00081708983898126960FB6F894DEBF0FBE7F
:1023E000CDBFCF91DF910895DF93CF93CDB7DEB707
:1023F00028970FB6F894DEBF0FBECDBF8B836C83DA
:102400008B819AE0692F0E94D331892F8A838B8137
:102410009AE0692F0E94D33189838C81813009F041
:1024200070C08981282F30E038872F838F8198856D
:102430008230910551F12F8138852330310534F4F4
:102440008F8198858130910561F0D3C02F813885C7
:102450002330310571F18F81988584309105E9F140
:10246000C8C0ABE3B0E0EBE3F0E08081482F8A81A5
:10247000282F30E081E090E0022E02C0880F991FE3
:102480000A94E2F7842B8C93B4C0A8E3B0E0E8E3AD
:10249000F0E08081482F8A81282F30E081E090E0B1
:1024A000022E02C0880F991F0A94E2F7842B8C93A6
:1024B000A0C0A5E3B0E0E5E3F0E08081482F8A8189
:1024C000282F30E081E090E0022E02C0880F991F93
:1024D0000A94E2F7842B8C938CC0A2E3B0E0E2E391
:1024E000F0E08081482F8A81282F30E081E090E061
:1024F000022E02C0880F991F0A94E2F7842B8C9356
:1025000078C08C81882309F074C08981282F30E03D
:102510003E832D838D819E818230910561F12D81D5
:102520003E812330310534F48D819E8181309105C7
:1025300069F05FC02D813E812330310589F18D81A5
:102540009E818430910509F440C053C0ABE3B0E0F4
:10255000EBE3F0E08081482F8A81282F30E081E092
:1025600090E0022E02C0880F991F0A94E2F780952E
:1025700084238C933EC0A8E3B0E0E8E3F0E08081E0
:10258000482F8A81282F30E081E090E0022E02C09F
:10259000880F991F0A94E2F7809584238C9329C0B1
:1025A000A5E3B0E0E5E3F0E08081482F8A81282FA1
:1025B00030E081E090E0022E02C0880F991F0A945B
:1025C000E2F7809584238C9314C0A2E3B0E0E2E3A9
:1025D000F0E08081482F8A81282F30E081E090E070
:1025E000022E02C0880F991F0A94E2F78095842377
:1025F0008C9328960FB6F894DEBF0FBECDBFCF9157
:10260000DF910895DF93CF9300D000D0CDB7DEB730
:102610008A838A81282F30E03C832B838B819C81A5
:1026200082309105D9F02B813C812330310534F47F
:102630008B819C818130910561F01EC02B813C8192
:102640002330310581F08B819C818430910581F0AC
:1026500013C0EBE3F0E0808189830EC0E8E3F0E093
:102660008081898309C0E5E3F0E08081898304C02B
:10267000E2E3F0E08081898389810F900F900F90D1
:102680000F90CF91DF910895DF93CF9300D000D0CA
:10269000CDB7DEB789836A838981282F30E03C83F8
:1026A0002B838B819C8182309105D9F02B813C81D9
:1026B0002330310534F48B819C818130910561F0A8
:1026C0001EC02B813C812330310581F08B819C81A0
:1026D0008430910581F013C0EBE3F0E08A818083C0
:1026E0000EC0E8E3F0E08A81808309C0E5E3F0E012
:1026F0008A81808304C0E2E3F0E08A8180830F90C6
:102700000F900F900F90CF91DF910895DF93CF93AB
:1027100000D000D00F92CDB7DEB78B838B819AE0CB
:10272000692F0E94D331892F8A838B819AE0692F88
:102730000E94D33189838981282F30E03D832C8307
:102740008C819D818230910551F12C813D81233016
:10275000310534F48C819D818130910561F05AC03E
:102760002C813D812330310571F18C819D81843034
:102770009105E9F14FC0ABE3B0E0EBE3F0E080811D
:10278000482F8A81282F30E081E090E0022E02C09D
:10279000880F991F0A94E2F784278C933BC0A8E323
:1027A000B0E0E8E3F0E08081482F8A81282F30E014
:1027B00081E090E0022E02C0880F991F0A94E2F790
:1027C00084278C9327C0A5E3B0E0E5E3F0E08081A7
:1027D000482F8A81282F30E081E090E0022E02C04D
:1027E000880F991F0A94E2F784278C9313C0A2E301
:1027F000B0E0E2E3F0E08081482F8A81282F30E0CA
:1028000081E090E0022E02C0880F991F0A94E2F73F
:1028100084278C930F900F900F900F900F90CF9173
:10282000DF910895DF93CF9300D0CDB7DEB79A83C1
:102830008983A6E2B0E0E6E2F0E0808180688C93D4
:10284000E7E2F0E01082A7E2B0E0E981FA8180815E
:10285000982F9295990F990F907CE981FA81818147
:102860008295880F807E890F8C93A6E2B0E0E6E225
:10287000F0E08081282F2F7DE981FA818281882FE5
:1028800090E081709070880F991F82959295907F4B
:102890009827807F9827822B8C93A0E5B0E0E0E515
:1028A000F0E080818F718C93A0E5B0E0E0E5F0E08E
:1028B0008081282FE981FA818581882F90E0880F17
:1028C000991F82959295907F9827807F9827822BD9
:1028D0008C93A6E2B0E0E6E2F0E08081887F8C9302
:1028E000A6E2B0E0E6E2F0E09081E981FA8184813D
:1028F000892B8C930F900F90CF91DF910895DF93E8
:10290000CF9300D000D00F92CDB7DEB78B83A7E274
:10291000B0E0E7E2F0E08081807E8C93A7E2B0E057
:10292000E7E2F0E090818B81892B8C931A821982E7
:102930000E94EB1405C089819A8101969A8389834C
:10294000E6E2F0E0808182958F70882F90E08170C0
:102950009070982F81E08927882331F489819A81AA
:1029600023EC8035920738F389819A8123EC8035F6
:10297000920760F4A6E2B0E0E6E2F0E080818061D8
:102980008C930E9423159D838C8302C01D821C8220
:102990008C819D810F900F900F900F900F90CF9191
:1029A000DF910895DF93CF930F92CDB7DEB7898380
:1029B000A7E2B0E0E7E2F0E08081807E8C93A7E2BE
:1029C000B0E0E7E2F0E090818981892B8C930F9051
:1029D000CF91DF910895DF93CF93CDB7DEB7A6E215
:1029E000B0E0E6E2F0E0808180648C93CF91DF91EB
:1029F0000895DF93CF93CDB7DEB7A6E2B0E0E6E26D
:102A0000F0E080818F778C93CF91DF910895DF93F1
:102A1000CF93CDB7DEB7A6E2B0E0E6E2F0E080818A
:102A200088608C93CF91DF910895DF93CF93CDB7DA
:102A3000DEB7A6E2B0E0E6E2F0E08081877F8C932B
:102A4000CF91DF910895DF93CF9300D000D0CDB721
:102A5000DEB7E7E2F0E08081829586958770882F67
:102A600090E081709070882341F0E5E2F0E0808191
:102A7000282F30E03C832B8313C0E4E2F0E0808118
:102A8000882F90E09A838983E5E2F0E08081282F07
:102A900030E089819A81A901480F591F5C834B83DB
:102AA0008B819C810F900F900F900F90CF91DF91B1
:102AB0000895DF93CF9300D00F92CDB7DEB79A83FE
:102AC00089836B83A7E2B0E0E7E2F0E08081807E5B
:102AD0008C93A7E2B0E0E7E2F0E090818B81892B54
:102AE0008C930E94EB1489819A819093A503809323
:102AF000A4030F900F900F90CF91DF910895DF9373
:102B0000CF9300D0CDB7DEB79A83898389819A812C
:102B10009093A5038093A4030F900F90CF91DF9122
:102B200008951F920F920FB60F9211242F933F9387
:102B30004F935F936F937F938F939F93AF93BF93C5
:102B4000EF93FF93DF93CF93CDB7DEB78091A403CC
:102B50009091A503009729F0E091A403F091A503BB
:102B60000995CF91DF91FF91EF91BF91AF919F9127
:102B70008F917F916F915F914F913F912F910F9026
:102B80000FBE0F901F901895DF93CF93CDB7DEB790
:102B9000C251D1400FB6F894DEBF0FBECDBFFE01CB
:102BA000EF5EFE4F91838083FE01EF5EFE4F8081DA
:102BB00091810E948832898B80E18A8B8989845F28
:102BC0008B8B1C8A84E08D8B8DE48E8B81E58F8BC3
:102BD00084E5888F84E5898F84E08A8F82E08B8FFB
:102BE0008FEF8C8F8FEF8D8F1E8E89898F8F188A34
:102BF0001BC08889882F90E0AC01425F5F4F8889B5
:102C0000282F30E0FE01EF5EFE4F80819181FC01B4
:102C1000E20FF31F2081CE014296FC01E40FF51F65
:102C2000208388898F5F888B98898989981708F312
:102C30001F8680C080E090E0A0E0B0E48B879C8796
:102C4000AD87BE876B857C858D859E8520E030E0D5
:102C50004AE755E40E941F02DC01CB018F8398876D
:102C6000A987BA876F81788589859A8520E030E0C9
:102C700040E85FE30E94250488232CF481E090E083
:102C80009E838D833FC06F81788589859A8520E0FA
:102C90003FEF4FE757E40E94C50318164CF56B85CC
:102CA0007C858D859E8520E030E040E251E40E94E5
:102CB0001F02DC01CB01BC01CD010E944900DC01F7
:102CC000CB019E838D830FC080E991E09C838B8331
:102CD0008B819C810197F1F79C838B838D819E81F1
:102CE00001979E838D838D819E81009769F714C023
:102CF0006F81788589859A850E944900DC01CB0126
:102D00009E838D838D819E819A83898389819A8117
:102D10000197F1F79A8389838F85282F30E0CE01C0
:102D20004296FC01E20FF31F80810E946B078F85A2
:102D30008F5F8F878F85282F30E08989882F90E0DB
:102D40000E96281739070CF475CFCE5EDE4F0FB6FE
:102D5000F894DEBF0FBECDBFCF91DF910895DF9312
:102D6000CF93CDB7DEB7AD970FB6F894DEBF0FBEE9
:102D7000CDBF9DA38CA37FA36EA32DB73EB73DA768
:102D80002CA78DB79EB799A788A78CA19DA10E945B
:102D9000883289A38EA19FA10E94883288A389A12D
:102DA000882F90E09C012A5F3F4F88A1882F90E0F8
:102DB000820F931F2DB73EB7281B390B0FB6F8941F
:102DC0003EBF0FBE2DBF8DB79EB701969BA78AA7AA
:102DD0008AA59BA500969BA78AA72AA53BA53BA3EE
:102DE0002AA31F8E1E8E80E090E0A0E2B1E4898FBE
:102DF0009A8FAB8FBC8F698D7A8D8B8D9C8D20E0E7
:102E000030E04AE755E40E941F02DC01CB018D8BC4
:102E10009E8BAF8BB88F6D897E898F89988D20E0CE
:102E200030E040E85FE30E94250488232CF481E031
:102E300090E09C8B8B8B3FC06D897E898F89988DAC
:102E400020E03FEF4FE757E40E94C50318164CF50A
:102E5000698D7A8D8B8D9C8D20E030E040E251E4CD
:102E60000E941F02DC01CB01BC01CD010E94490080
:102E7000DC01CB019C8B8B8B0FC080E991E09A8B9E
:102E8000898B89899A890197F1F79A8B898B8B892C
:102E90009C8901979C8B8B8B8B899C89009769F708
:102EA00014C06D897E898F89988D0E944900DC014C
:102EB000CB019C8B8B8B8B899C89988B8F878F8583
:102EC00098890197F1F7988B8F87EAA1FBA180E39E
:102ED000808399A188A1890F8C5FEAA1FBA18183DE
:102EE000EAA1FBA11282EAA1FBA189A183831F8E23
:102EF00018C08F8D882F90E0AC014C5F5F4F8F8D95
:102F0000282F30E08CA19DA1FC01E20FF31F20814E
:102F10008AA19BA1FC01E40FF51F20838F8D8F5F99
:102F20008F8F9F8D89A1981720F38F8D882F90E028
:102F30009C012C5F3F4F8AA19BA1FC01E20FF31F74
:102F400010828F8D8F5F8F8F8F8D882F90E09C01E7
:102F50002C5F3F4F8AA19BA1FC01E20FF31F88A1C8
:102F600080838F8D8F5F8F8F1E8E1EC08F8D882FD9
:102F700090E09C012C5F3F4F8E8D882F90E0A9013F
:102F8000480F591F8E8D282F30E08EA19FA1FC0184
:102F9000E20FF31F20818AA19BA1FC01E40FF51F22
:102FA00020838E8D8F5F8E8F9E8D88A19817F0F273
:102FB0001D8E80C080E090E0A0E2B1E48B879C870A
:102FC000AD87BE876B857C858D859E8520E030E052
:102FD0004AE755E40E941F02DC01CB018F839887EA
:102FE000A987BA876F81788589859A8520E030E046
:102FF00040E85FE30E94250488232CF481E090E000
:103000009E838D833FC06F81788589859A8520E076
:103010003FEF4FE757E40E94C50318164CF56B8548
:103020007C858D859E8520E030E040E251E40E9461
:103030001F02DC01CB01BC01CD010E944900DC0173
:10304000CB019E838D830FC080E991E09C838B83AD
:103050008B819C810197F1F79C838B838D819E816D
:1030600001979E838D838D819E81009769F714C09F
:103070006F81788589859A850E944900DC01CB01A2
:103080009E838D838D819E819A83898389819A8194
:103090000197F1F79A8389838D8D282F30E08AA1DB
:1030A0009BA1FC01E20FF31F80810E946B078D8DB5
:1030B0008F5F8D8F8D8D482F50E089A1882F90E0F4
:1030C0009C012A5F3F4F88A1882F90E0820F931FB9
:1030D000481759070CF46ECF88A599A50FB6F89438
:1030E0009EBF0FBE8DBF2CA53DA50FB6F8943EBF69
:1030F0000FBE2DBFAD960FB6F894DEBF0FBECDBF8D
:10310000CF91DF910895DF93CF93CDB7DEB72F979F
:103110000FB6F894DEBF0FBECDBF998788872DB755
:103120003EB73F872E878DB79EB79B878A87888556
:1031300099850E9488328B838B818B5F8A838B81F8
:10314000895F89838981882F90E02DB73EB7281B3E
:10315000390B0FB6F8943EBF0FBE2DBF8DB79EB78B
:1031600001969D878C878C859D8500969D878C8791
:103170002C853D853F832E83EE81FF8182E880830D
:10318000EE81FF818A818183EE81FF811282EE814F
:10319000FF818AE08383EE81FF811482EE81FF81CB
:1031A0008B8185831D8218C08D81882F90E0AC01B2
:1031B0004A5F5F4F8D81282F30E088859985FC011B
:1031C000E20FF31F20818E819F81FC01E40FF51F28
:1031D00020838D818F5F8D83EE81FF8195818D812D
:1031E000891710F38D81882F90E09C012A5F3F4F53
:1031F0008E819F81FC01E20FF31F10821C820EC0A2
:103200008C81282F30E08E819F81FC01E20FF31F1B
:1032100080810E946B078C818F5F8C839C81898168
:10322000981770F38A859B850FB6F8949EBF0FBEE2
:103230008DBF2E853F850FB6F8943EBF0FBE2DBFC4
:103240002F960FB6F894DEBF0FBECDBFCF91DF91A2
:103250000895DF93CF93CDB7DEB78AE393E00E9462
:103260001214CF91DF910895DF93CF9300D000D057
:1032700000D0CDB7DEB780913D030E947F149A83C2
:10328000898329813A8184EF91E0AC01249FC001B8
:10329000259F900D349F900D112420E031E0B9015D
:1032A0000E94F3318138910514F189819A8124EFCC
:1032B00031E0AC01429FC001439F900D529F900DA1
:1032C00011249C838B838B819C81992334F42B81E3
:1032D0003C8121503F4F3C832B834B815C81852F68
:1032E000992787FD9A9501969A83898320C08981C1
:1032F0009A8124EF31E0AC01429FC001439F900DC1
:10330000529F900D11249E838D838D819E819923E0
:1033100034F42D813E8121503F4F3E832D834D81DA
:103320005E81852F992787FD9A959A838983898164
:103330009A8126960FB6F894DEBF0FBECDBFCF910F
:10334000DF910895DF93CF93CDB7DEB782E793E0A7
:103350000E9426080E94C919CF91DF910895DF933A
:10336000CF930F92CDB7DEB7898368E873E180E031
:1033700090E049810E947E090F90CF91DF910895DE
:10338000DF93CF93CDB7DEB70E949608CF91DF9140
:103390000895DF93CF93CDB7DEB768E873E180E09F
:1033A00090E040E00E947E09CF91DF910895DF9385
:1033B000CF93CDB7DEB780E493E00E941214CF9193
:1033C000DF910895DF93CF9300D0CDB7DEB7809122
:1033D00043030E947F149A83898389810F900F9001
:1033E000CF91DF9108950F931F93DF93CF93CDB7C4
:1033F000DEB7CD54D0400FB6F894DEBF0FBECDBFC0
:10340000FE01E35BFF4F8083FE01E35BFF4F8081A2
:10341000982F991F9927991F88E1692F0E94F4110D
:10342000FE01E35BFF4F80818295869586958370D0
:10343000982F917086E1692F0E94F411FE01E35BE1
:10344000FF4F8081829586958770982F917085E1D6
:10345000692F0E94F411FE01E35BFF4F808182958A
:103460008F70982F917084E1692F0E94F4118CE085
:1034700061E00E94F411FE01E75BFF4F80E090E005
:10348000AAE7B4E480839183A283B3838E010B5BAC
:103490001F4FFE01E75BFF4F608171818281938145
:1034A0002BEA3AEA4AEA50E40E941F02DC01CB010F
:1034B000F80180839183A283B383FE01EB5BFF4F0E
:1034C000608171818281938120E030E040E85FE398
:1034D0000E942504882334F4FE01EC5BFF4F81E059
:1034E0008083A7C0FE01EB5BFF4F60817181828109
:1034F000938120E030E04FE753E40E94C5031816A3
:103500000CF087C0FE01E75BFF4F60817181828113
:10351000938120E030E04AE754E40E941903DC0183
:10352000CB01FE01E05CFF4F80839183A283B383D4
:10353000FE01E05CFF4F608171818281938120E018
:1035400030E04AE755E40E941F02DC01CB018CAF5A
:103550009DAFAEAFBFAF6CAD7DAD8EAD9FAD20E08A
:1035600030E040E85FE30E94250488232CF481E0EA
:1035700090E09BAF8AAF42C06CAD7DAD8EAD9FAD8C
:1035800020E03FEF4FE757E40E94C503181664F5AB
:10359000FE01E05CFF4F608171818281938120E0B8
:1035A00030E040E251E40E941F02DC01CB01BC018B
:1035B000CD010E944900DC01CB019BAF8AAF0FC057
:1035C00080E991E099AF88AF88AD99AD0197F1F7A7
:1035D00099AF88AF8AAD9BAD01979BAF8AAF8AAD9B
:1035E0009BAD009769F72EC06CAD7DAD8EAD9FADE4
:1035F0000E944900DC01CB019BAF8AAF8AAD9BAD35
:103600009FAB8EAB8EA99FA90197F1F79FAB8EABB5
:1036100019C08E010C5B1F4FFE01EB5BFF4F6081F9
:103620007181828193810E944900DC01CB01F80104
:103630008083FE01EC5BFF4F80818DAB8DA98A9565
:10364000F1F78DAB8CE060E00E94F41180E090E037
:10365000A0EAB0E489AB9AABABABBCAB69A97AA9E1
:103660008BA99CA920E030E04AE755E40E941F02A4
:10367000DC01CB018DA79EA7AFA7B8AB6DA57EA53A
:103680008FA598A920E030E040E85FE30E94250480
:1036900088232CF481E090E09CA78BA73FC06DA508
:1036A0007EA58FA598A920E03FEF4FE757E40E9441
:1036B000C50318164CF569A97AA98BA99CA920E025
:1036C00030E040E251E40E941F02DC01CB01BC016A
:1036D000CD010E944900DC01CB019CA78BA70FC044
:1036E00080E991E09AA789A789A59AA50197F1F7A2
:1036F0009AA789A78BA59CA501979CA78BA78BA5AB
:103700009CA5009769F714C06DA57EA58FA598A903
:103710000E944900DC01CB019CA78BA78BA59CA52F
:1037200098A78FA38FA198A50197F1F798A78FA3CA
:10373000FE01E35BFF4F8081869586958695982FE5
:10374000917088E1692F0E94F411FE01E35BFF4F45
:10375000808186958695982F917086E1692F0E94C9
:10376000F411FE01E35BFF4F80818695982F9170E5
:1037700085E1692F0E94F411FE01E35BFF4F808118
:10378000982F917084E1692F0E94F4118CE061E020
:103790000E94F41180E090E0AAE7B4E48BA39CA31C
:1037A000ADA3BEA36BA17CA18DA19EA12BEA3AEA99
:1037B0004AEA50E40E941F02DC01CB018F8F98A3DC
:1037C000A9A3BAA36F8D78A189A19AA120E030E0C6
:1037D00040E85FE30E94250488231CF481E08E8F7B
:1037E00091C06F8D78A189A19AA120E030E04FE7C8
:1037F00053E40E94C50318160CF07BC06BA17CA19A
:103800008DA19EA120E030E04AE754E40E94190314
:10381000DC01CB018A8F9B8FAC8FBD8F6A8D7B8D36
:103820008C8D9D8D20E030E04AE755E40E941F0218
:10383000DC01CB018E8B9F8BA88FB98F6E897F891E
:10384000888D998D20E030E040E85FE30E942504F8
:1038500088232CF481E090E09D8B8C8B3FC06E8997
:103860007F89888D998D20E03FEF4FE757E40E94D4
:10387000C50318164CF56A8D7B8D8C8D9D8D20E0CF
:1038800030E040E251E40E941F02DC01CB01BC01A8
:10389000CD010E944900DC01CB019D8B8C8B0FC0B8
:1038A00080E991E09B8B8A8B8A899B890197F1F74C
:1038B0009B8B8A8B8C899D8901979D8B8C8B8C89A6
:1038C0009D89009769F724C06E897F89888D998DBD
:1038D0000E944900DC01CB019D8B8C8B8C899D89DA
:1038E000998B888B888999890197F1F7998B888BB7
:1038F0000FC06F8D78A189A19AA10E944900DC01B7
:10390000CB018E8F8E8D8F878F858A95F1F78F876C
:103910008CE060E00E94F41180E090E0A0EAB0E466
:103920008B879C87AD87BE876B857C858D859E85C3
:1039300020E030E04AE755E40E941F02DC01CB01A1
:103940008F839887A987BA876F81788589859A85BB
:1039500020E030E040E85FE30E94250488232CF457
:1039600081E090E09E838D833FC06F81788589855B
:103970009A8520E03FEF4FE757E40E94C5031816F1
:103980004CF56B857C858D859E8520E030E040E29E
:1039900051E40E941F02DC01CB01BC01CD010E9459
:1039A0004900DC01CB019E838D830FC080E991E04B
:1039B0009C838B838B819C810197F1F79C838B8304
:1039C0008D819E8101979E838D838D819E8100973D
:1039D00069F714C06F81788589859A850E944900AE
:1039E000DC01CB019E838D838D819E819A838983A7
:1039F00089819A810197F1F79A838983C35BDF4FAD
:103A00000FB6F894DEBF0FBECDBFCF91DF911F91EF
:103A10000F910895DF93CF93CDB7DEB7E4970FB63C
:103A2000F894DEBF0FBECDBF80E090E0A0EFB1E420
:103A300089AB9AABABABBCAB69A97AA98BA99CA9A2
:103A400020E030E04AE755E40E941F02DC01CB0190
:103A50008DA79EA7AFA7B8AB6DA57EA58FA598A98A
:103A600020E030E040E85FE30E94250488232CF446
:103A700081E090E09CA78BA73FC06DA57EA58FA598
:103A800098A920E03FEF4FE757E40E94C5031816BE
:103A90004CF569A97AA98BA99CA920E030E040E205
:103AA00051E40E941F02DC01CB01BC01CD010E9448
:103AB0004900DC01CB019CA78BA70FC080E991E0F6
:103AC0009AA789A789A59AA50197F1F79AA789A727
:103AD0008BA59CA501979CA78BA78BA59CA5009760
:103AE00069F714C06DA57EA58FA598A90E9449000D
:103AF000DC01CB019CA78BA78BA59CA598A78FA3C6
:103B00008FA198A50197F1F798A78FA38DE060E0AA
:103B10000E94F41182E20E94DF1E88E161E00E94AF
:103B2000F41186E160E00E94F4118CE061E00E94F3
:103B3000F41180E090E0AAE7B4E48BA39CA3ADA3CA
:103B4000BEA36BA17CA18DA19EA12BEA3AEA4AEA11
:103B500050E40E941F02DC01CB018F8F98A3A9A320
:103B6000BAA36F8D78A189A19AA120E030E040E846
:103B70005FE30E94250488231CF481E08E8F91C0AE
:103B80006F8D78A189A19AA120E030E04FE753E43E
:103B90000E94C50318160CF07BC06BA17CA18DA1FF
:103BA0009EA120E030E04AE754E40E941903DC01C2
:103BB000CB018A8F9B8FAC8FBD8F6A8D7B8D8C8D57
:103BC0009D8D20E030E04AE755E40E941F02DC01B1
:103BD000CB018E8B9F8BA88FB98F6E897F89888D43
:103BE000998D20E030E040E85FE30E9425048823BF
:103BF0002CF481E090E09D8B8C8B3FC06E897F8997
:103C0000888D998D20E03FEF4FE757E40E94C50370
:103C100018164CF56A8D7B8D8C8D9D8D20E030E0E3
:103C200040E251E40E941F02DC01CB01BC01CD0146
:103C30000E944900DC01CB019D8B8C8B0FC080E979
:103C400091E09B8B8A8B8A899B890197F1F79B8BEB
:103C50008A8B8C899D8901979D8B8C8B8C899D8902
:103C6000009769F724C06E897F89888D998D0E949D
:103C70004900DC01CB019D8B8C8B8C899D89998BB4
:103C8000888B888999890197F1F7998B888B0FC068
:103C90006F8D78A189A19AA10E944900DC01CB0116
:103CA0008E8F8E8D8F878F858A95F1F78F878CE029
:103CB00060E00E94F41180E090E0A0EAB0E48B871D
:103CC0009C87AD87BE876B857C858D859E8520E032
:103CD00030E04AE755E40E941F02DC01CB018F83EC
:103CE0009887A987BA876F81788589859A8520E02A
:103CF00030E040E85FE30E94250488232CF481E053
:103D000090E09E838D833FC06F81788589859A85F9
:103D100020E03FEF4FE757E40E94C50318164CF52B
:103D20006B857C858D859E8520E030E040E251E406
:103D30000E941F02DC01CB01BC01CD010E944900A1
:103D4000DC01CB019E838D830FC080E991E09C83D1
:103D50008B838B819C810197F1F79C838B838D8171
:103D60009E8101979E838D838D819E81009769F747
:103D700014C06F81788589859A850E944900DC018D
:103D8000CB019E838D838D819E819A8389838981D6
:103D90009A810197F1F79A8389838FE00E94DF1E51
:103DA00081E00E94DF1E82E00E94DF1EE4960FB6D3
:103DB000F894DEBF0FBECDBFCF91DF910895DF93A2
:103DC000CF930F92CDB7DEB789838DE060E00E947C
:103DD000F41189810E94F3190F90CF91DF9108951A
:103DE000DF93CF930F92CDB7DEB789838DE061E08B
:103DF0000E94F41189810E94F3190F90CF91DF91F5
:103E00000895DF93CF9300D0CDB7DEB79A8389832F
:103E10000AC0E981FA8180810E94F01E89819A811D
:103E200001969A838983E981FA818081882389F7C1
:103E30000F900F90CF91DF9108950F931F93DF9311
:103E4000CF93CDB7DEB764970FB6F894DEBF0FBE41
:103E5000CDBF698B7A8B8B8B9C8B1E821D8289894F
:103E60009A89AB89BC890097A105B10521F480E34B
:103E70000E94F01E90C089899A89AB89BC89BB23B6
:103E800094F48DE20E94F01E89899A89AB89BC89DD
:103E9000B095A095909581959F4FAF4FBF4F898B5F
:103EA0009A8BAB8BBC8B89899A89AB89BC898983B6
:103EB0009A83AB83BC8315C089819A81AB81BC8115
:103EC0002AE030E040E050E0BC01CD010E94283201
:103ED000DA01C90189839A83AB83BC838E818F5FAA
:103EE0008E8389819A81AB81BC810097A105B10540
:103EF00019F789899A89AB89BC8989839A83AB83AD
:103F0000BC8338C08E81282F30E08D81882F90E0CF
:103F1000A901481B590BCA018C010150104089812D
:103F20009A81AB81BC812AE030E040E050E0BC01E6
:103F3000CD010E942832DC01CB01805D282FCE010B
:103F40000796FC01E00FF11F208389819A81AB81E4
:103F5000BC812AE030E040E050E0BC01CD010E948D
:103F60002832DA01C90189839A83AB83BC838D81AE
:103F70008F5F8D839D818E81981720F28E81282FEF
:103F800030E0CE010796FC01E20FF31F1082CE0154
:103F900007960E94011F64960FB6F894DEBF0FBE0D
:103FA000CDBFCF91DF911F910F910895DF93CF93F4
:103FB00000D00F92CDB7DEB78A836B838A81882FBA
:103FC00090E09C01220F331F220F331FC901880F7D
:103FD000991F880F991F820F931F982F8B81890F2C
:103FE000898389818068898389810E94DF1E0F907F
:103FF0000F900F90CF91DF910895DF93CF9300D072
:1040000000D00F92CDB7DEB79C838B836D838D81FB
:10401000882F90E00896880F991F880F991F880FA6
:10402000991F0E94DF1E1A8219820FC029813A81CE
:104030008B819C81FC01E20FF31F80810E94F01EA6
:1040400089819A8101969A83898389819A818830AE
:10405000910564F380E80E94DF1E0F900F900F908F
:104060000F900F90CF91DF910895DF93CF930F9230
:10407000CDB7DEB7898389810E94F01E0F90CF9162
:10408000DF9108950F931F93DF93CF93CDB7DEB7E2
:10409000CB5AD0400FB6F894DEBF0FBECDBF109202
:1040A000A70383E19BE20E94D107FE01E555FF4F84
:1040B0001082FE01E755FF4F1182108280E690E0EA
:1040C0000E9499070E94D1298823E1F381E00E9490
:1040D000DF1EFE01EB55FF4F80E090E0A0E2B1E46F
:1040E00080839183A283B3838E010F551F4FFE01FE
:1040F000EB55FF4F608171818281938120E030E038
:104100004AE755E40E941F02DC01CB01F8018083DD
:104110009183A283B383FE01EF55FF4F60817181CC
:104120008281938120E030E040E85FE30E94250433
:10413000882344F4FE01E156FF4F81E090E0918333
:10414000808364C0FE01EF55FF4F608171818281E1
:10415000938120E03FEF4FE757E40E94C503181614
:104160000CF043C0FE01EB55FF4F608171818281ED
:10417000938120E030E040E251E40E941F02DC0124
:10418000CB018E0101561F4FBC01CD010E94490099
:10419000DC01CB01F801918380831FC0FE01E3564F
:1041A000FF4F80E991E091838083FE01E356FF4F4A
:1041B000808191810197F1F7FE01E356FF4F9183D2
:1041C0008083DE01A156BF4FFE01E156FF4F808183
:1041D0009181019711969C938E93FE01E156FF4FBA
:1041E000808191810097D1F627C08E0101561F4F23
:1041F000FE01EF55FF4F60817181828193810E94A2
:104200004900DC01CB01F80191838083DE01A556D2
:10421000BF4FFE01E156FF4F808191818D939C93AA
:10422000FE01E556FF4F808191810197F1F7FE0174
:10423000E556FF4F9183808387E690E00E94011F3F
:104240000E94E72AFE01E956FF4F80E090E0AAEFC6
:10425000B3E480839183A283B3838E010D561F4FF5
:10426000FE01E956FF4F608171818281938120E0D8
:1042700030E04AE755E40E941F02DC01CB01F8015F
:1042800080839183A283B383FE01ED56FF4F60814B
:1042900071818281938120E030E040E85FE30E94F9
:1042A0002504882344F4FE01EF56FF4F81E090E09F
:1042B0009183808364C0FE01ED56FF4F6081718160
:1042C0008281938120E03FEF4FE757E40E94C503CE
:1042D00018160CF043C0FE01E956FF4F6081718152
:1042E0008281938120E030E040E251E40E941F028D
:1042F000DC01CB018E010F561F4FBC01CD010E9486
:104300004900DC01CB01F801918380831FC0FE01CD
:10431000E157FF4F80E991E091838083FE01E157EF
:10432000FF4F808191810197F1F7FE01E157FF4F27
:1043300091838083DE01AF56BF4FFE01EF56FF4FE2
:1043400080819181019711969C938E93FE01EF5687
:10435000FF4F808191810097D1F627C08E010F56C3
:104360001F4FFE01ED56FF4F608171818281938165
:104370000E944900DC01CB01F80191838083DE01BA
:10438000A357BF4FFE01EF56FF4F808191818D9360
:104390009C93FE01E357FF4F808191810197F1F7D4
:1043A000FE01E357FF4F918380838FE690E00E94E8
:1043B00099070E94D1298823E1F381E00E94DF1E42
:1043C000FE01E757FF4F80E090E0A0E2B1E4808378
:1043D0009183A283B3838E010B571F4FFE01E757D2
:1043E000FF4F608171818281938120E030E04AE754
:1043F00055E40E941F02DC01CB01F8018083918308
:10440000A283B383FE01EB57FF4F608171818281EC
:10441000938120E030E040E85FE30E942504882398
:1044200044F4FE01ED57FF4F81E090E091838083DB
:1044300064C0FE01EB57FF4F6081718182819381DF
:1044400020E03FEF4FE757E40E94C50318160CF039
:1044500043C0FE01E757FF4F6081718182819381E4
:1044600020E030E040E251E40E941F02DC01CB0179
:104470008E010D571F4FBC01CD010E944900DC0188
:10448000CB01F801918380831FC0FE01EF57FF4FDE
:1044900080E991E091838083FE01EF57FF4F808197
:1044A00091810197F1F7FE01EF57FF4F91838083D0
:1044B000DE01AD57BF4FFE01ED57FF4F8081918167
:1044C000019711969C938E93FE01ED57FF4F8081CB
:1044D00091810097D1F627C08E010D571F4FFE0125
:1044E000EB57FF4F60817181828193810E94490067
:1044F000DC01CB01F80191838083DE01A158BF4F1D
:10450000FE01ED57FF4F808191818D939C93FE01B9
:10451000E158FF4F808191810197F1F7FE01E15849
:10452000FF4F918380838DE790E00E94011F0E94DE
:10453000E72AFE01E558FF4F80E090E0AAEFB3E4E0
:1045400080839183A283B3838E0109581F4FFE019C
:10455000E558FF4F608171818281938120E030E0D6
:104560004AE755E40E941F02DC01CB01F801808379
:104570009183A283B383FE01E958FF4F608171816B
:104580008281938120E030E040E85FE30E942504CF
:10459000882344F4FE01EB58FF4F81E090E09183C3
:1045A000808364C0FE01E958FF4F60817181828180
:1045B000938120E03FEF4FE757E40E94C5031816B0
:1045C0000CF043C0FE01E558FF4F6081718182818C
:1045D000938120E030E040E251E40E941F02DC01C0
:1045E000CB018E010B581F4FBC01CD010E94490029
:1045F000DC01CB01F801918380831FC0FE01ED58DF
:10460000FF4F80E991E091838083FE01ED58FF4FD9
:10461000808191810197F1F7FE01ED58FF4F918361
:104620008083DE01AB58BF4FFE01EB58FF4F808106
:104630009181019711969C938E93FE01EB58FF4F49
:10464000808191810097D1F627C08E010B581F4FB2
:10465000FE01E958FF4F60817181828193810E9440
:104660004900DC01CB01F80191838083DE01AF5862
:10467000BF4FFE01EB58FF4F808191818D939C933A
:10468000FE01EF58FF4F808191810197F1F7FE0104
:10469000EF58FF4F9183808389E890E00E9499074B
:1046A0000E94D1298823E1F381E00E94DF1EFE01F0
:1046B000E359FF4F80E090E0A0E2B1E48083918372
:1046C000A283B3838E0107591F4FFE01E359FF4FA9
:1046D000608171818281938120E030E04AE755E476
:1046E0000E941F02DC01CB01F80180839183A28329
:1046F000B383FE01E759FF4F60817181828193810D
:1047000020E030E040E85FE30E942504882344F481
:10471000FE01E959FF4F81E090E09183808364C0FE
:10472000FE01E759FF4F608171818281938120E012
:104730003FEF4FE757E40E94C50318160CF043C043
:10474000FE01E359FF4F608171818281938120E0F6
:1047500030E040E251E40E941F02DC01CB018E01F7
:1047600009591F4FBC01CD010E944900DC01CB015A
:10477000F801918380831FC0FE01EB59FF4F80E950
:1047800091E091838083FE01EB59FF4F80819181FD
:104790000197F1F7FE01EB59FF4F91838083DE0112
:1047A000A959BF4FFE01E959FF4F808191810197BF
:1047B00011969C938E93FE01E959FF4F8081918160
:1047C0000097D1F627C08E0109591F4FFE01E75906
:1047D000FF4F60817181828193810E944900DC01D9
:1047E000CB01F80191838083DE01AD59BF4FFE01FB
:1047F000E959FF4F808191818D939C93FE01ED5982
:10480000FF4F808191810197F1F7FE01ED59FF4F34
:104810009183808387E990E00E94011F0E94E72A2C
:10482000FE01E15AFF4F80E090E0AAEFB3E48083FD
:104830009183A283B3838E01055A1F4FFE01E15A73
:10484000FF4F608171818281938120E030E04AE7EF
:1048500055E40E941F02DC01CB01F80180839183A3
:10486000A283B383FE01E55AFF4F6081718182818B
:10487000938120E030E040E85FE30E942504882334
:1048800044F4FE01E75AFF4F81E090E0918380837A
:1048900064C0FE01E55AFF4F60817181828193817E
:1048A00020E03FEF4FE757E40E94C50318160CF0D5
:1048B00043C0FE01E15AFF4F608171818281938183
:1048C00020E030E040E251E40E941F02DC01CB0115
:1048D0008E01075A1F4FBC01CD010E944900DC0127
:1048E000CB01F801918380831FC0FE01E95AFF4F7D
:1048F00080E991E091838083FE01E95AFF4F808136
:1049000091810197F1F7FE01E95AFF4F918380836E
:10491000DE01A75ABF4FFE01E75AFF4F8081918108
:10492000019711969C938E93FE01E75AFF4F808169
:1049300091810097D1F627C08E01075A1F4FFE01C3
:10494000E55AFF4F60817181828193810E94490005
:10495000DC01CB01F80191838083DE01AB5ABF4FAC
:10496000FE01E75AFF4F808191818D939C93FE0158
:10497000EB5AFF4F808191810197F1F7FE01EB5ACD
:10498000FF4F9183808383EA90E00E9499070E9401
:10499000D1298823E1F381E00E94DF1EFE01EF5A56
:1049A000FF4F80E090E0A0E2B1E480839183A28396
:1049B000B3838E01035B1F4FFE01EF5AFF4F6081EF
:1049C00071818281938120E030E04AE755E40E94C2
:1049D0001F02DC01CB01F80180839183A283B383A2
:1049E000FE01E35BFF4F608171818281938120E052
:1049F00030E040E85FE30E942504882344F4FE0190
:104A0000E55BFF4F81E090E09183808364C0FE010D
:104A1000E35BFF4F608171818281938120E03FEFF2
:104A20004FE757E40E94C50318160CF043C0FE017F
:104A3000EF5AFF4F608171818281938120E030E0E5
:104A400040E251E40E941F02DC01CB018E01055BB4
:104A50001F4FBC01CD010E944900DC01CB01F801D0
:104A6000918380831FC0FE01E75BFF4F80E991E0E7
:104A700091838083FE01E75BFF4F808191810197E5
:104A8000F1F7FE01E75BFF4F91838083DE01A55BB9
:104A9000BF4FFE01E55BFF4F808191810197119629
:104AA0009C938E93FE01E55BFF4F8081918100977F
:104AB000D1F627C08E01055B1F4FFE01E35BFF4F60
:104AC00060817181828193810E944900DC01CB0168
:104AD000F80191838083DE01A95BBF4FFE01E55B96
:104AE000FF4F808191818D939C93FE01E95BFF4F85
:104AF000808191810197F1F7FE01E95BFF4F91837E
:104B0000808387E990E00E94011F0E94E72AFE014E
:104B1000ED5BFF4F80E090E0AAEFB3E480839183E8
:104B2000A283B3838E01015C1F4FFE01ED5BFF4F3B
:104B3000608171818281938120E030E04AE755E411
:104B40000E941F02DC01CB01F80180839183A283C4
:104B5000B383FE01FF96608171818281938120E0A1
:104B600030E040E85FE30E94250488232CF481E0D4
:104B700090E09EAF8DAF46C0FE01FF9660817181CF
:104B80008281938120E03FEF4FE757E40E94C50305
:104B9000181664F5FE01ED5BFF4F60817181828123
:104BA000938120E030E040E251E40E941F02DC01EA
:104BB000CB01BC01CD010E944900DC01CB019EAFBD
:104BC0008DAF0FC080E991E09CAF8BAF8BAD9CADFA
:104BD0000197F1F79CAF8BAF8DAD9EAD01979EAF66
:104BE0008DAF8DAD9EAD009769F716C0FE01FF96A3
:104BF00060817181828193810E944900DC01CB0137
:104C00009EAF8DAF8DAD9EAD9AAF89AF89AD9AAD98
:104C10000197F1F79AAF89AF82EB90E00E94990774
:104C20000E94D1298823E1F381E00E94DF1E80E009
:104C300090E0A0E2B1E48DAB9EABAFABB8AF6DA995
:104C40007EA98FA998AD20E030E04AE755E40E94A4
:104C50001F02DC01CB0189AB9AABABABBCAB69A942
:104C60007AA98BA99CA920E030E040E85FE30E948C
:104C7000250488232CF481E090E098AB8FA73FC0F7
:104C800069A97AA98BA99CA920E03FEF4FE757E4D7
:104C90000E94C50318164CF56DA97EA98FA998AD81
:104CA00020E030E040E251E40E941F02DC01CB0131
:104CB000BC01CD010E944900DC01CB0198AB8FA75C
:104CC0000FC080E991E09EA78DA78DA59EA50197B5
:104CD000F1F79EA78DA78FA598A9019798AB8FA7ED
:104CE0008FA598A9009769F714C069A97AA98BA91B
:104CF0009CA90E944900DC01CB0198AB8FA78FA52E
:104D000098A99CA78BA78BA59CA50197F1F79CA7B9
:104D10008BA784ED90E00E94011F0E94E72A80E0AB
:104D200090E4ACE9B5E48FA398A7A9A7BAA76FA1AF
:104D300078A589A59AA520E030E04AE755E40E94CD
:104D40001F02DC01CB018BA39CA3ADA3BEA36BA16F
:104D50007CA18DA19EA120E030E040E85FE30E94AD
:104D6000250488232CF481E090E09AA389A33FC016
:104D70006BA17CA18DA19EA120E03FEF4FE757E4FE
:104D80000E94C50318164CF56FA178A589A59AA5B0
:104D900020E030E040E251E40E941F02DC01CB0140
:104DA000BC01CD010E944900DC01CB019AA389A37B
:104DB0000FC080E991E098A38F8F8F8D98A1019704
:104DC000F1F798A38F8F89A19AA101979AA389A33C
:104DD00089A19AA1009769F714C06BA17CA18DA14C
:104DE0009EA10E944900DC01CB019AA389A389A15D
:104DF0009AA19E8F8D8F8D8D9E8D0197F1F79E8F3D
:104E00008D8F83EE90E00E9499070E94D12988231C
:104E1000E1F381E00E94DF1E80E090E0A0E2B1E4D7
:104E2000898F9A8FAB8FBC8F698D7A8D8B8D9C8D7E
:104E300020E030E04AE755E40E941F02DC01CB018C
:104E40008D8B9E8BAF8BB88F6D897E898F89988D66
:104E500020E030E040E85FE30E94250488232CF442
:104E600081E090E09C8B8B8B3FC06D897E898F8920
:104E7000988D20E03FEF4FE757E40E94C5031816D6
:104E80004CF5698D7A8D8B8D9C8D20E030E040E271
:104E900051E40E941F02DC01CB01BC01CD010E9444
:104EA0004900DC01CB019C8B8B8B0FC080E991E02A
:104EB0009A8B898B89899A890197F1F79A8B898BCB
:104EC0008B899C8901979C8B8B8B8B899C89009704
:104ED00069F714C06D897E898F89988D0E94490079
:104EE000DC01CB019C8B8B8B8B899C89988B8F876A
:104EF0008F8598890197F1F7988B8F8787E191E0EB
:104F00000E94011F0E94E72A80E090E4ACE9B5E42A
:104F10008B879C87AD87BE876B857C858D859E85BD
:104F200020E030E04AE755E40E941F02DC01CB019B
:104F30008F839887A987BA876F81788589859A85B5
:104F400020E030E040E85FE30E94250488232CF451
:104F500081E090E09E838D833FC06F817885898555
:104F60009A8520E03FEF4FE757E40E94C5031816EB
:104F70004CF56B857C858D859E8520E030E040E298
:104F800051E40E941F02DC01CB01BC01CD010E9453
:104F90004900DC01CB019E838D830FC080E991E045
:104FA0009C838B838B819C810197F1F79C838B83FE
:104FB0008D819E8101979E838D838D819E81009737
:104FC00069F714C06F81788589859A850E944900A8
:104FD000DC01CB019E838D838D819E819A838983A1
:104FE00089819A810197F1F79A838983C555DF4FAB
:104FF0000FB6F894DEBF0FBECDBFCF91DF911F91EA
:105000000F910895DF93CF93CDB7DEB7C051D14054
:105010000FB6F894DEBF0FBECDBFFE01E15FFE4FBD
:1050200091838083FE01E15FFE4F808191810E9428
:105030008832825F8F878F85882F90E09E01205F66
:105040003F4FB9014AE050E00E94AB3288E291E064
:105050000E949907CE0140960E94990784E391E04F
:105060000E949907FE01E15FFE4F808191810E94BD
:10507000C41580E090E0AAE7B4E48B879C87AD87F5
:10508000BE876B857C858D859E8520E030E04AE774
:1050900055E40E941F02DC01CB018F839887A9870A
:1050A000BA876F81788589859A8520E030E040E86D
:1050B0005FE30E94250488232CF481E090E09E8326
:1050C0008D833FC06F81788589859A8520E03FEF89
:1050D0004FE757E40E94C50318164CF56B857C8595
:1050E0008D859E8520E030E040E251E40E941F0261
:1050F000DC01CB01BC01CD010E944900DC01CB01E8
:105100009E838D830FC080E991E09C838B838B818C
:105110009C810197F1F79C838B838D819E81019700
:105120009E838D838D819E81009769F714C06F8166
:10513000788589859A850E944900DC01CB019E8390
:105140008D838D819E819A83898389819A8101973C
:10515000F1F79A8389830E94E72AC05FDE4F0FB67A
:10516000F894DEBF0FBECDBFCF91DF910895DF93DE
:10517000CF93CDB7DEB7C550D1400FB6F894DEBFA0
:105180000FBECDBFFE01EE5FFE4F91838083FE0117
:10519000EC5FFE4F7183608310920F04FE01EE5F9F
:1051A000FE4F808191810E9488328A83FE01EC5FEC
:1051B000FE4F808191810E94883289838A81882F65
:1051C00090E09C012A5F3F4F8981882F90E0820FF9
:1051D000931F9E012D5F3F4FB9014AE050E00E94AE
:1051E000AB3288E291E00E949907CE0103960E94BB
:1051F000990784E391E00E949907FE01EE5FFE4F5C
:1052000080819181FE01EC5FFE4F20813181B901E7
:105210000E94AF1610920C0481E080930F04CB5FC4
:10522000DE4F0FB6F894DEBF0FBECDBFCF91DF913A
:105230000895DF93CF93CDB7DEB7C051D1400FB6FD
:10524000F894DEBF0FBECDBFFE01E15FFE4F91833C
:1052500080831092A703FE01E15FFE4F8081918160
:105260000E9488328F878F85882F90E007969E0155
:10527000205F3F4FB9014AE050E00E94AB3288E224
:1052800091E00E949907CE0140960E94990784E31D
:1052900091E00E94990780E090E0AAEFB3E48B8749
:1052A0009C87AD87BE876B857C858D859E8520E03C
:1052B00030E04AE755E40E941F02DC01CB018F83F6
:1052C0009887A987BA876F81788589859A8520E034
:1052D00030E040E85FE30E94250488232CF481E05D
:1052E00090E09E838D833FC06F81788589859A8504
:1052F00020E03FEF4FE757E40E94C50318164CF536
:105300006B857C858D859E8520E030E040E251E410
:105310000E941F02DC01CB01BC01CD010E944900AB
:10532000DC01CB019E838D830FC080E991E09C83DB
:105330008B838B819C810197F1F79C838B838D817B
:105340009E8101979E838D838D819E81009769F751
:1053500014C06F81788589859A850E944900DC0197
:10536000CB019E838D838D819E819A8389838981E0
:105370009A810197F1F79A838983FE01E15FFE4FDD
:10538000808191810E94831881E08093A703C05F90
:10539000DE4F0FB6F894DEBF0FBECDBFCF91DF91C9
:1053A0000895DF93CF930F92CDB7DEB78AED94E0E7
:1053B0000E94E7078091DA04803370F03091A603F1
:1053C000832F90E02091DA04FC01EE5EFB4F2083F6
:1053D000832F8F5F8093A6038091DA048B3459F476
:1053E0008091A603882F90E0FC01EE5EFB4F1082B7
:1053F00081E0898301C0198289810F90CF91DF916B
:105400000895DF93CF93CDB7DEB762970FB6F894C8
:10541000DEBF0FBECDBF188A1F868AED94E00E94C2
:10542000E7078091DA04803370F03091A603832F70
:1054300090E02091DA04FC01EE5EFB4F2083832F85
:105440008F5F8093A6038091DA048F3509F0B6C090
:1054500081E00E94DF1E8091A603882F90E0FC016E
:10546000EE5EFB4F108280E090E0A8E4B2E48B8710
:105470009C87AD87BE876B857C858D859E8520E06A
:1054800030E04AE755E40E941F02DC01CB018F8324
:105490009887A987BA876F81788589859A8520E062
:1054A00030E040E85FE30E94250488232CF481E08B
:1054B00090E09E838D833FC06F81788589859A8532
:1054C00020E03FEF4FE757E40E94C50318164CF564
:1054D0006B857C858D859E8520E030E040E251E43F
:1054E0000E941F02DC01CB01BC01CD010E944900DA
:1054F000DC01CB019E838D830FC080E991E09C830A
:105500008B838B819C810197F1F79C838B838D81A9
:105510009E8101979E838D838D819E81009769F77F
:1055200014C06F81788589859A850E944900DC01C5
:10553000CB019E838D838D819E819A83898389810E
:105540009A810197F1F79A83898382E194E027E3B6
:1055500031E0B9010E9491329A8B898B16C08F85F8
:10556000482F50E08F85882F90E09C01295F3F4FA6
:1055700089899A89FC01E20FF31F8081FA01EA58B8
:10558000FB4F80838F858F5F8F878F85882F90E07B
:105590009C01295F3F4F89899A89FC01E20FF31F23
:1055A00080818F35E1F68F85882F90E0FC01EA58E5
:1055B000FB4F10820E94E72A1092A60362960FB654
:1055C000F894DEBF0FBECDBFCF91DF910895DF937A
:1055D000CF93CDB7DEB782E194E060E070E044E6BF
:1055E00050E00E947A321092A603CF91DF91089585
:1055F000DF93CF9300D0CDB7DEB79A8389838981BB
:105600009A8126E734E0B9010E94813286E794E06E
:1056100060E070E044E650E00E947A320F900F9014
:10562000CF91DF910895DF93CF93CDB7DEB70E947E
:10563000FF0F8091A703882319F40E94D12906C087
:105640008091A703813011F40E94012A8091A60362
:10565000843611F41092A6030E94F10FCF91DF91CE
:105660000895DF93CF9300D000D0CDB7DEB788E0A8
:10567000898382E08A83CE0101960E94920A0F906C
:105680000F900F900F90CF91DF910895DF93CF93FC
:105690000F92CDB7DEB7898384E669810E94800CC2
:1056A0000F90CF91DF910895DF93CF93CDB7DEB701
:1056B0000E94CA0ACF91DF910895DF93CF93CDB7AF
:1056C000DEB784E660E00E94800CCF91DF91089500
:1056D000DF93CF93CDB7DEB72F970FB6F894DEBF29
:1056E0000FBECDBF8F8781E00E94DF1E8F85882F80
:1056F00090E0A0E0B0E0BC01CD010E941D1F80E061
:1057000090E0AAEFB4E48B879C87AD87BE876B855A
:105710007C858D859E8520E030E04AE755E40E9437
:105720001F02DC01CB018F839887A987BA876F811D
:10573000788589859A8520E030E040E85FE30E9423
:10574000250488232CF481E090E09E838D833FC064
:105750006F81788589859A8520E03FEF4FE757E490
:105760000E94C50318164CF56B857C858D859E853A
:1057700020E030E040E251E40E941F02DC01CB0156
:10578000BC01CD010E944900DC01CB019E838D83C9
:105790000FC080E991E09C838B838B819C81019772
:1057A000F1F79C838B838D819E8101979E838D83EE
:1057B0008D819E81009769F714C06F8178858985F6
:1057C0009A850E944900DC01CB019E838D838D81E7
:1057D0009E819A83898389819A810197F1F79A83BF
:1057E000898380E20E94F01E2F960FB6F894DEBFE8
:1057F0000FBECDBFCF91DF910895DF93CF93CDB78B
:10580000DEB760970FB6F894DEBF0FBECDBF988BA2
:105810008F8781E00E94DF1E8F8598890E94011F7B
:1058200080E090E0AAEFB3E48B879C87AD87BE87CA
:105830006B857C858D859E8520E030E04AE755E4C8
:105840000E941F02DC01CB018F839887A987BA874A
:105850006F81788589859A8520E030E040E85FE3B4
:105860000E94250488232CF481E090E09E838D83A0
:105870003FC06F81788589859A8520E03FEF4FE7AB
:1058800057E40E94C50318164CF56B857C858D8501
:105890009E8520E030E040E251E40E941F02DC01DE
:1058A000CB01BC01CD010E944900DC01CB019E83EC
:1058B0008D830FC080E991E09C838B838B819C81D9
:1058C0000197F1F79C838B838D819E8101979E8345
:1058D0008D838D819E81009769F714C06F817885D3
:1058E00089859A850E944900DC01CB019E838D83C6
:1058F0008D819E819A83898389819A810197F1F7AD
:105900009A83898360960FB6F894DEBF0FBECDBF31
:10591000CF91DF910895DF93CF93CDB7DEB781E0CC
:1059200080933903CF91DF910895DF93CF93CDB763
:10593000DEB70E94F10F86E493E00E94970D80E0AD
:105940000E940D108BE89CE260E00E94A5100E946E
:105950000A1D0E94952F0E94D7190E94312B0E9488
:10596000A219CF91DF910895DF93CF93CDB7DEB722
:105970006E970FB6F894DEBF0FBECDBF1D8E1E8E84
:10598000809139038130E1F70E94942E80E090E00D
:10599000A0E8BFE3898F9A8FAB8FBC8F698D7A8D1A
:1059A0008B8D9C8D20E030E04AE755E40E941F0279
:1059B000DC01CB018D8B9E8BAF8BB88F6D897E897F
:1059C0008F89988D20E030E040E85FE30E94250455
:1059D00088232CF481E090E09C8B8B8B3FC06D89F9
:1059E0007E898F89988D20E03FEF4FE757E40E9432
:1059F000C50318164CF5698D7A8D8B8D9C8D20E032
:105A000030E040E251E40E941F02DC01CB01BC0106
:105A1000CD010E944900DC01CB019C8B8B8B0FC018
:105A200080E991E09A8B898B89899A890197F1F7AE
:105A30009A8B898B8B899C8901979C8B8B8B8B890B
:105A40009C89009769F714C06D897E898F89988D2C
:105A50000E944900DC01CB019C8B8B8B8B899C893C
:105A6000988B8F878F8598890197F1F7988B8F870F
:105A70000E94942E8D8F0E949D2E8E8F80911004F7
:105A8000882309F479C00E943F2F80E090E0A0E2D3
:105A9000B1E48B879C87AD87BE876B857C858D85C0
:105AA0009E8520E030E04AE755E40E941F02DC01B9
:105AB000CB018F839887A987BA876F81788589857D
:105AC0009A8520E030E040E85FE30E9425048823C7
:105AD0002CF481E090E09E838D833FC06F817885B8
